S00C000067616D652E737265637E
S11300000C942A000C9447000C9447000C9447006D
S11300100C9447000C9447000C9447000C94470040
S11300200C9447000C9447000C9499030C944700DB
S11300300C9447000C9447000C9447000C94470020
S11300400C9447000C9447000C9447000C94470010
S11300500C94470011241FBECFE5D8E0DEBFCDBF0E
S113006010E0A0E6B0E0EEE8FAE002C005900D92E0
S1130070A63DB107D9F720E0A6EDB0E001C01D927E
S1130080AA3DB207E1F70E9414020C9445050C94B2
S11300900000823419F118F4813439F0089583345E
S11300A0B1F1843409F44CC00895413059F42AB3B1
S11300B081E090E002C0880F991F6A95E2F7822BD5
S11300C08ABB08952AB381E090E002C0880F991F8B
S11300D06A95E2F7809582238ABB0895413059F4EA
S11300E027B381E090E002C0880F991F6A95E2F778
S11300F0822B87BB089527B381E090E002C0880F6C
S1130100991F6A95E2F78095822387BB0895413051
S113011059F424B381E090E002C0880F991F6A95D6
S1130120E2F7822B84BB089524B381E090E002C0FF
S1130130880F991F6A95E2F78095822384BB0895FE
S1130140413059F421B381E090E002C0880F991F37
S11301506A95E2F7822B81BB089521B381E090E098
S113016002C0880F991F6A95E2F78095822381BBAC
S11301700895823419F118F4813439F008958334E0
S1130180B1F1843409F44CC00895413059F42BB3CF
S113019081E090E002C0880F991F6A95E2F7822BF4
S11301A08BBB08952BB381E090E002C0880F991FA8
S11301B06A95E2F7809582238BBB0895413059F408
S11301C028B381E090E002C0880F991F6A95E2F796
S11301D0822B88BB089528B381E090E002C0880F89
S11301E0991F6A95E2F78095822388BB0895413070
S11301F059F425B381E090E002C0880F991F6A95F5
S1130200E2F7822B85BB089525B381E090E002C01C
S1130210880F991F6A95E2F78095822385BB08951C
S1130220413059F422B381E090E002C0880F991F55
S11302306A95E2F7822B82BB089522B381E090E0B5
S113024002C0880F991F6A95E2F78095822382BBCA
S113025008958234D9F018F4813431F04DC08334D8
S113026039F18434B9F148C029B381E090E0062E15
S113027002C0880F991F0A94E2F730E08223932387
S113028002C0959587956A95E2F7089526B381E0B3
S113029090E0062E02C0880F991F0A94E2F730E01E
S11302A08223932302C0959587956A95E2F7089572
S11302B023B381E090E0062E02C0880F991F0A94B0
S11302C0E2F730E08223932302C0959587956A95DF
S11302D0E2F7089520B381E090E0062E02C0880F73
S11302E0991F0A94E2F730E08223932302C0959584
S11302F087956A95E2F7089580E00895823419F1AC
S113030018F4813439F008958334B1F1843409F454
S11303104CC00895413059F42BB381E090E002C001
S1130320880F991F6A95E2F7822B8BBB08952BB334
S113033081E090E002C0880F991F6A95E2F78095EA
S113034082238BBB0895413059F428B381E090E0B7
S113035002C0880F991F6A95E2F7822B88BB089523
S113036028B381E090E002C0880F991F6A95E2F7F4
S11303708095822388BB0895413059F425B381E0E8
S113038090E002C0880F991F6A95E2F7822B85BB23
S1130390089525B381E090E002C0880F991F6A9503
S11303A0E2F78095822385BB0895413059F422B346
S11303B081E090E002C0880F991F6A95E2F7822BD2
S11303C082BB089522B381E090E002C0880F991F98
S11303D06A95E2F78095822382BB08956295607FD7
S11303E0823479F018F4813431F00895833479F04B
S11303F0843499F008958BB38F708BBB8BB3862BA9
S11304008BBB88B38F7088BB88B3862B88BB85B3BE
S11304108F7085BB85B3862B85BB82B38F7082BBFF
S113042082B3682B62BB0895CF93DF930E94B0031D
S11304300E947C0480E790E00E94FD040E94350540
S1130440C1E0D0E08091D8009091D900883E9340DB
S113045024F0D093D700C093D6000E94ED0390E01F
S1130460EFE3FCE93197F1F700C000008F3F9105FD
S1130470D1F48091D6009091D700892B19F3FFEF26
S113048023ED80E3F15020408040E1F700C00000FC
S11304900E940C0564E082E00E9416058FE790E05C
S11304A00E94FD0441C1C59709F034C189E890E078
S11304B00E94FD0464E082E00E941605EFE3FCE97B
S11304C03197F1F700C000008BE890E00E94FD0432
S11304D0FFE728E381E0F15020408040E1F700C0CD
S11304E000000E940C0585E990E00E94FD04C1E033
S11304F0D0E08091D8009091D900883E934024F0B8
S1130500D093D700C093D6000E94ED0390E0EFE3B0
S1130510FCE93197F1F700C000008F3F910589F4A1
S11305208091D6009091D700892B19F30E940C0575
S113053064E082E00E9416058FE790E00E94FD04CB
S1130540F3C0C79709F0DBC084EA90E00E94FD0481
S113055064E082E00E9416058FE59AEE0197F1F7B8
S113056000C000008BE890E00E94FD049FE7E8E3F0
S1130570F1E09150E040F040E1F700C000000E943B
S11305800C0586EA90E00E94FD04C1E0D0E0809171
S1130590D8009091D900883E934024F0D093D7009E
S11305A0C093D6000E94ED0390E0EFE3FCE931979D
S11305B0F1F700C000008F3F9105B9F48091D60097
S11305C09091D700892B19F38FE39CE90197F1F7F8
S11305D000C000000E940C0564E082E00E94160541
S11305E08FE790E00E94FD049FC0C39709F07CC090
S11305F085EB90E00E94FD04EFE3FCE93197F1F70D
S113060000C0000064E082E00E9416058BE890E0E0
S11306100E94FD04FFEF23EF81E0F1502040804071
S1130620E1F700C000000E940C0587EB90E00E94F7
S1130630FD04C1E0D0E08091D8009091D900883EBB
S1130640934024F0D093D700C093D6000E94ED03CA
S113065090E0EFE3FCE93197F1F700C000008F3F31
S11306609105B9F48091D6009091D700892B19F3A4
S11306708FE39CE90197F1F700C000000E940C058C
S113068064E082E00E9416058FE790E00E94FD047A
S11306904BC0C997F1F487EC90E00E94FD0464E03C
S11306A082E00E941605EFE3FCE93197F1F700C000
S11306B000008BE890E00E94FD04FFEF23EF81E04F
S11306C0F15020408040E1F700C000000E940C057A
S11306D02BC00E940C0563E082E00E94160589ECA1
S11306E090E00E94FD0420C00E940C0563E082E0BB
S11306F00E94160589EC90E00E94FD0415C00E943A
S11307000C0563E082E00E94160589EC90E00E94EB
S1130710FD040AC00E940C0563E082E00E941605F5
S113072089EC90E00E94FD0480E090E0DF91CF919D
S113073008951F920F920FB60F9211248F939F93D7
S11307408091D8009091D90001969093D90080931C
S1130750D8009F918F910F900FBE0F901F90189506
S113076041E060E081E40E94490041E061E081E40D
S11307700E94490041E062E081E40E94490041E0B6
S113078063E081E40E94490040E064E081E40E9467
S1130790490040E065E081E40E94490040E066E0F1
S11307A081E40E94490040E067E081E40E9449003E
S11307B041E064E081E40E947E0141E065E081E47F
S11307C00E947E0141E066E081E40E947E0141E0F6
S11307D067E081E40E947E0108950F931F93CF93F5
S11307E0DF93CDB7DEB760970FB6F894DEBF0FBEC8
S11307F0CDBF80E1E0E6F0E0DE01119601900D92BC
S11308008A95E1F700E041E060E081E40E94B900EC
S113081041E061E081E40E94B90041E062E081E4EA
S11308200E94B90041E063E081E40E94B90040E025
S1130830602F81E40E94B90010E064E0610F81E45C
S11308400E94290181110DC0E1E0F0E0EC0FFD1FD1
S113085084E0089FE00DF11D1124E10FF11D80815A
S113086007C01F5F143049F70F5F043061F68FEF44
S113087060960FB6F894DEBF0FBECDBFDF91CF9167
S11308801F910F91089541E062E082E40E94B90053
S11308908FE99FE00197F1F700C0000040E062E0BB
S11308A082E40E94B9008FE99FE00197F1F700C04C
S11308B000000895CF93C82F682F62956F7082E46B
S11308C00E94EE0140E060E082E40E94B9000E94D0
S11308D043046C2F82E40E94EE0140E060E082E475
S11308E00E94B9000E9443048FEC97E00197F1F74E
S11308F000C00000CF9108952FEF81EE94E02150C5
S113090080409040E1F700C0000041E064E082E4F0
S11309100E94490041E065E082E40E94490041E010
S113092066E082E40E94490041E067E082E40E94BC
S1130930490041E062E082E40E94490041E061E054
S113094082E40E94490041E060E082E40E944900A0
S113095040E061E082E40E94B90082E00E945A040F
S11309608FE19EE40197F1F700C0000088E20E9445
S11309705A048FEC97E00197F1F700C000008EE075
S11309800E945A048FEC97E00197F1F700C0000031
S113099081E00E945A048FE19EE40197F1F700C0C0
S11309A0000086E00E945A048FEC97E00197F1F76B
S11309B000C000000895CF93C82F682F62956F7010
S11309C082E40E94EE0141E060E082E40E94B9000A
S11309D00E9443046C2F82E40E94EE0141E060E037
S11309E082E40E94B9000E9443048FEC97E00197CF
S11309F0F1F700C00000CF910895CF93DF93EC018D
S1130A008881882331F021960E94DB048991811129
S1130A10FBCFDF91CF91089581E00E945A048FE1CA
S1130A209EE40197F1F700C0000008959FEF980F2E
S1130A30923070F49FEF960F903160F4813019F486
S1130A402FE7260F08C0823031F42FEB260F03C0A6
S1130A5020E801C020E8822F0E945A048FEC97E01E
S1130A600197F1F700C00000089583B7886083BF41
S1130A708EE48CBF83B7816083BF83B7846083BFF8
S1110A80789489B7826089BF0895F894FFCFF7
S1130A8E3738392F3435362A3132332D41303D2B18
S1130A9E332B2E2E2E3D382076616C75653D005419
S1130AAE696D65206F76657200350057656C6C2034
S1130ABE646F6E6500322B353D2E2E2E2076616CC2
S1130ACE75653D0037002E2E2E2A323D3620766176
S1130ADE6C75653D00330031382F323D2E2E2E209D
S1130AEE76616C75653D00390057726F6E672061D3
S1090AFE6E7377657200BF
S9030000FC
